{
  "_format": "hh-sol-artifact-1",
  "contractName": "WavePortal",
  "sourceName": "contracts/WavePortal.sol",
  "abi": [
    {
      "inputs": [],
      "stateMutability": "nonpayable",
      "type": "constructor"
    },
    {
      "inputs": [],
      "name": "getArray",
      "outputs": [
        {
          "internalType": "address[]",
          "name": "",
          "type": "address[]"
        }
      ],
      "stateMutability": "view",
      "type": "function"
    },
    {
      "inputs": [],
      "name": "getMsgSender",
      "outputs": [
        {
          "internalType": "address",
          "name": "",
          "type": "address"
        }
      ],
      "stateMutability": "view",
      "type": "function"
    },
    {
      "inputs": [],
      "name": "getTotalWaves",
      "outputs": [
        {
          "internalType": "uint256",
          "name": "",
          "type": "uint256"
        }
      ],
      "stateMutability": "view",
      "type": "function"
    },
    {
      "inputs": [],
      "name": "wave",
      "outputs": [],
      "stateMutability": "nonpayable",
      "type": "function"
    }
  ],
  "bytecode": "0x608060405234801561001057600080fd5b506100596040518060400160405280600c81526020017f4920646f6e27742063617265000000000000000000000000000000000000000081525061005e60201b6102531760201c565b6101e1565b6100fa81604051602401610072919061015f565b6040516020818303038152906040527f41304fac000000000000000000000000000000000000000000000000000000007bffffffffffffffffffffffffffffffffffffffffffffffffffffffff19166020820180517bffffffffffffffffffffffffffffffffffffffffffffffffffffffff83818316178352505050506100fd60201b60201c565b50565b60008151905060006a636f6e736f6c652e6c6f679050602083016000808483855afa5050505050565b600061013182610181565b61013b818561018c565b935061014b81856020860161019d565b610154816101d0565b840191505092915050565b600060208201905081810360008301526101798184610126565b905092915050565b600081519050919050565b600082825260208201905092915050565b60005b838110156101bb5780820151818401526020810190506101a0565b838111156101ca576000848401525b50505050565b6000601f19601f8301169050919050565b610793806101f06000396000f3fe608060405234801561001057600080fd5b506004361061004c5760003560e01c80636fe15b44146100515780637a6ce2e11461005b5780639a2cdc0814610079578063d504ea1d14610097575b600080fd5b6100596100b5565b005b610063610172565b6040516100709190610529565b60405180910390f35b61008161017a565b60405161008e91906105e8565b60405180910390f35b61009f6101c5565b6040516100ac9190610544565b60405180910390f35b60016000808282546100c79190610658565b925050819055506001339080600181540180825580915050600190039060005260206000200160009091909190916101000a81548173ffffffffffffffffffffffffffffffffffffffff021916908373ffffffffffffffffffffffffffffffffffffffff1602179055506101706040518060400160405280600d81526020017f2573206861732077617665642100000000000000000000000000000000000000815250336102ec565b565b600033905090565b60006101bd6040518060400160405280601781526020017f5765206861766520256420746f74616c20776176657321000000000000000000815250600054610388565b600054905090565b6060600180548060200260200160405190810160405280929190818152602001828054801561024957602002820191906000526020600020905b8160009054906101000a900473ffffffffffffffffffffffffffffffffffffffff1673ffffffffffffffffffffffffffffffffffffffff16815260200190600101908083116101ff575b5050505050905090565b6102e9816040516024016102679190610566565b6040516020818303038152906040527f41304fac000000000000000000000000000000000000000000000000000000007bffffffffffffffffffffffffffffffffffffffffffffffffffffffff19166020820180517bffffffffffffffffffffffffffffffffffffffffffffffffffffffff8381831617835250505050610424565b50565b6103848282604051602401610302929190610588565b6040516020818303038152906040527f319af333000000000000000000000000000000000000000000000000000000007bffffffffffffffffffffffffffffffffffffffffffffffffffffffff19166020820180517bffffffffffffffffffffffffffffffffffffffffffffffffffffffff8381831617835250505050610424565b5050565b610420828260405160240161039e9291906105b8565b6040516020818303038152906040527f9710a9d0000000000000000000000000000000000000000000000000000000007bffffffffffffffffffffffffffffffffffffffffffffffffffffffff19166020820180517bffffffffffffffffffffffffffffffffffffffffffffffffffffffff8381831617835250505050610424565b5050565b60008151905060006a636f6e736f6c652e6c6f679050602083016000808483855afa5050505050565b60006104598383610465565b60208301905092915050565b61046e816106ae565b82525050565b61047d816106ae565b82525050565b600061048e82610613565b6104988185610636565b93506104a383610603565b8060005b838110156104d45781516104bb888261044d565b97506104c683610629565b9250506001810190506104a7565b5085935050505092915050565b60006104ec8261061e565b6104f68185610647565b93506105068185602086016106ea565b61050f8161074c565b840191505092915050565b610523816106e0565b82525050565b600060208201905061053e6000830184610474565b92915050565b6000602082019050818103600083015261055e8184610483565b905092915050565b6000602082019050818103600083015261058081846104e1565b905092915050565b600060408201905081810360008301526105a281856104e1565b90506105b16020830184610474565b9392505050565b600060408201905081810360008301526105d281856104e1565b90506105e1602083018461051a565b9392505050565b60006020820190506105fd600083018461051a565b92915050565b6000819050602082019050919050565b600081519050919050565b600081519050919050565b6000602082019050919050565b600082825260208201905092915050565b600082825260208201905092915050565b6000610663826106e0565b915061066e836106e0565b9250827fffffffffffffffffffffffffffffffffffffffffffffffffffffffffffffffff038211156106a3576106a261071d565b5b828201905092915050565b60006106b9826106c0565b9050919050565b600073ffffffffffffffffffffffffffffffffffffffff82169050919050565b6000819050919050565b60005b838110156107085780820151818401526020810190506106ed565b83811115610717576000848401525b50505050565b7f4e487b7100000000000000000000000000000000000000000000000000000000600052601160045260246000fd5b6000601f19601f830116905091905056fea2646970667358221220d9f94a3d9edc9a53e4273c81184a2b5ea0b5e4935c7a13e0b876b468595c9a9e64736f6c63430008040033",
  "linkReferences": {},
  "deployedLinkReferences": {}
}